{
  "contractName": "agentic_smart_contract",
  "abi": [
    {
      "inputs": [
        {
          "internalType": "uint256",
          "name": "",
          "type": "uint256"
        }
      ],
      "name": "records",
      "outputs": [
        {
          "internalType": "string",
          "name": "data",
          "type": "string"
        },
        {
          "internalType": "string",
          "name": "decision",
          "type": "string"
        },
        {
          "internalType": "string",
          "name": "action",
          "type": "string"
        },
        {
          "internalType": "uint256",
          "name": "timestamp",
          "type": "uint256"
        }
      ],
      "stateMutability": "view",
      "type": "function"
    },
    {
      "inputs": [
        {
          "internalType": "string",
          "name": "_data",
          "type": "string"
        },
        {
          "internalType": "string",
          "name": "_decision",
          "type": "string"
        },
        {
          "internalType": "string",
          "name": "_action",
          "type": "string"
        }
      ],
      "name": "packaging_actions",
      "outputs": [],
      "stateMutability": "nonpayable",
      "type": "function"
    }
  ],
  "bytecode": "0x608060405234801561000f575f80fd5b5061094c8061001d5f395ff3fe608060405234801561000f575f80fd5b5060043610610034575f3560e01c80630bcb246b146100385780633446106714610054575b5f80fd5b610052600480360381019061004d9190610421565b610087565b005b61006e60048036038101906100699190610504565b6101ec565b60405161007e94939291906105c8565b60405180910390f35b5f604051806080016040528088888080601f0160208091040260200160405190810160405280939291908181526020018383808284375f81840152601f19601f82011690508083019250505050505050815260200186868080601f0160208091040260200160405190810160405280939291908181526020018383808284375f81840152601f19601f82011690508083019250505050505050815260200184848080601f0160208091040260200160405190810160405280939291908181526020018383808284375f81840152601f19601f82011690508083019250505050505050815260200142815250908060018154018082558091505060019003905f5260205f2090600402015f909190919091505f820151815f0190816101ab9190610847565b5060208201518160010190816101c19190610847565b5060408201518160020190816101d79190610847565b50606082015181600301555050505050505050565b5f81815481106101fa575f80fd5b905f5260205f2090600402015f91509050805f0180546102199061067a565b80601f01602080910402602001604051908101604052809291908181526020018280546102459061067a565b80156102905780601f1061026757610100808354040283529160200191610290565b820191905f5260205f20905b81548152906001019060200180831161027357829003601f168201915b5050505050908060010180546102a59061067a565b80601f01602080910402602001604051908101604052809291908181526020018280546102d19061067a565b801561031c5780601f106102f35761010080835404028352916020019161031c565b820191905f5260205f20905b8154815290600101906020018083116102ff57829003601f168201915b5050505050908060020180546103319061067a565b80601f016020809104026020016040519081016040528092919081815260200182805461035d9061067a565b80156103a85780601f1061037f576101008083540402835291602001916103a8565b820191905f5260205f20905b81548152906001019060200180831161038b57829003601f168201915b5050505050908060030154905084565b5f80fd5b5f80fd5b5f80fd5b5f80fd5b5f80fd5b5f8083601f8401126103e1576103e06103c0565b5b8235905067ffffffffffffffff8111156103fe576103fd6103c4565b5b60208301915083600182028301111561041a576104196103c8565b5b9250929050565b5f805f805f806060878903121561043b5761043a6103b8565b5b5f87013567ffffffffffffffff811115610458576104576103bc565b5b61046489828a016103cc565b9650965050602087013567ffffffffffffffff811115610487576104866103bc565b5b61049389828a016103cc565b9450945050604087013567ffffffffffffffff8111156104b6576104b56103bc565b5b6104c289828a016103cc565b92509250509295509295509295565b5f819050919050565b6104e3816104d1565b81146104ed575f80fd5b50565b5f813590506104fe816104da565b92915050565b5f60208284031215610519576105186103b8565b5b5f610526848285016104f0565b91505092915050565b5f81519050919050565b5f82825260208201905092915050565b5f5b8381101561056657808201518184015260208101905061054b565b5f8484015250505050565b5f601f19601f8301169050919050565b5f61058b8261052f565b6105958185610539565b93506105a5818560208601610549565b6105ae81610571565b840191505092915050565b6105c2816104d1565b82525050565b5f6080820190508181035f8301526105e08187610581565b905081810360208301526105f48186610581565b905081810360408301526106088185610581565b905061061760608301846105b9565b95945050505050565b7f4e487b71000000000000000000000000000000000000000000000000000000005f52604160045260245ffd5b7f4e487b71000000000000000000000000000000000000000000000000000000005f52602260045260245ffd5b5f600282049050600182168061069157607f821691505b6020821081036106a4576106a361064d565b5b50919050565b5f819050815f5260205f209050919050565b5f6020601f8301049050919050565b5f82821b905092915050565b5f600883026107067fffffffffffffffffffffffffffffffffffffffffffffffffffffffffffffffff826106cb565b61071086836106cb565b95508019841693508086168417925050509392505050565b5f819050919050565b5f61074b610746610741846104d1565b610728565b6104d1565b9050919050565b5f819050919050565b61076483610731565b61077861077082610752565b8484546106d7565b825550505050565b5f90565b61078c610780565b61079781848461075b565b505050565b5b818110156107ba576107af5f82610784565b60018101905061079d565b5050565b601f8211156107ff576107d0816106aa565b6107d9846106bc565b810160208510156107e8578190505b6107fc6107f4856106bc565b83018261079c565b50505b505050565b5f82821c905092915050565b5f61081f5f1984600802610804565b1980831691505092915050565b5f6108378383610810565b9150826002028217905092915050565b6108508261052f565b67ffffffffffffffff81111561086957610868610620565b5b610873825461067a565b61087e8282856107be565b5f60209050601f8311600181146108af575f841561089d578287015190505b6108a7858261082c565b86555061090e565b601f1984166108bd866106aa565b5f5b828110156108e4578489015182556001820191506020850194506020810190506108bf565b8683101561090157848901516108fd601f891682610810565b8355505b6001600288020188555050505b50505050505056fea264697066735822122099bf0fe4c3a7b4514733cb389d4db29fece320ef6d42a05d0c9c54d225bf832e64736f6c63430008150033",
  "immutableReferences": {},
  "source": "//This will be a logging smart contract\n//It will package the actions of the python file agentic_model,\n//  and store them\n\n\n// SPDX-License-Identifier: MIT\npragma solidity >=0.5.0 < 0.9.0;\n\ncontract agentic_smart_contract \n{\n    // Declare a new complex type which will\n    // be used for variables later.\n    // It will represent a record of a single \n    // agent's actions.\n    struct Record {\n        // The following are string types as that is \n        // the return type of those functions in\n        // agentic_model.py\n        string data;\n        string decision;\n        string action;\n        uint timestamp;\n    }\n\n    // Create a dynamically-sized storage array\n    Record[] public records;\n\n    function packaging_actions(string calldata _data, string calldata _decision, string calldata _action) public \n    {\n        //'Record({...})' creates a temporary Record\n        // object and 'records.push(...)' appends\n        // it to the end of 'records'.\n        records.push(Record({\n            data: _data,\n            decision: _decision, \n            action: _action,\n            timestamp: block.timestamp\n        }));\n    }\n}",
  "sourcePath": "/Users/homepro/agentic-cybersecurity-architecture/agentic-cybersecurity-architecture/smart_contract_dir/contracts/agent_smart_contract.sol",
  "compiler": {
    "name": "solc",
    "version": "0.8.21+commit.d9974bed.Emscripten.clang"
  },
  "schemaVersion": "3.4.16",
  "updatedAt": "2026-03-22T20:40:09.011Z",
  "devdoc": {
    "kind": "dev",
    "methods": {},
    "version": 1
  },
  "userdoc": {
    "kind": "user",
    "methods": {},
    "version": 1
  }
}